{
  "_format": "hh-sol-artifact-1",
  "contractName": "PoolPayment",
  "sourceName": "contracts/MoatPayment.sol",
  "abi": [
    {
      "inputs": [
        {
          "internalType": "address",
          "name": "_escrowToken",
          "type": "address"
        }
      ],
      "stateMutability": "nonpayable",
      "type": "constructor"
    },
    {
      "anonymous": false,
      "inputs": [
        {
          "indexed": false,
          "internalType": "string",
          "name": "moatName",
          "type": "string"
        },
        {
          "indexed": false,
          "internalType": "string",
          "name": "pool",
          "type": "string"
        },
        {
          "indexed": true,
          "internalType": "string",
          "name": "poolName",
          "type": "string"
        },
        {
          "indexed": true,
          "internalType": "address",
          "name": "validator",
          "type": "address"
        },
        {
          "indexed": true,
          "internalType": "address",
          "name": "creator",
          "type": "address"
        }
      ],
      "name": "PoolCreated",
      "type": "event"
    },
    {
      "anonymous": false,
      "inputs": [
        {
          "indexed": true,
          "internalType": "string",
          "name": "poolName",
          "type": "string"
        },
        {
          "indexed": true,
          "internalType": "address",
          "name": "validator",
          "type": "address"
        },
        {
          "indexed": true,
          "internalType": "address",
          "name": "creator",
          "type": "address"
        },
        {
          "indexed": false,
          "internalType": "uint256",
          "name": "fundsAdded",
          "type": "uint256"
        },
        {
          "indexed": false,
          "internalType": "uint256",
          "name": "totalFunds",
          "type": "uint256"
        }
      ],
      "name": "PoolFunded",
      "type": "event"
    },
    {
      "anonymous": false,
      "inputs": [
        {
          "indexed": true,
          "internalType": "string",
          "name": "poolName",
          "type": "string"
        },
        {
          "indexed": true,
          "internalType": "address",
          "name": "newValidator",
          "type": "address"
        },
        {
          "indexed": true,
          "internalType": "address",
          "name": "oldValidator",
          "type": "address"
        }
      ],
      "name": "ValidatorTransferred",
      "type": "event"
    },
    {
      "inputs": [
        {
          "internalType": "string",
          "name": "poolName",
          "type": "string"
        },
        {
          "internalType": "address",
          "name": "validator",
          "type": "address"
        },
        {
          "internalType": "string",
          "name": "moat",
          "type": "string"
        }
      ],
      "name": "createPool",
      "outputs": [],
      "stateMutability": "nonpayable",
      "type": "function"
    },
    {
      "inputs": [],
      "name": "escrowToken",
      "outputs": [
        {
          "internalType": "contract IERC20",
          "name": "",
          "type": "address"
        }
      ],
      "stateMutability": "view",
      "type": "function"
    },
    {
      "inputs": [
        {
          "internalType": "string",
          "name": "poolName",
          "type": "string"
        },
        {
          "internalType": "uint256",
          "name": "amt",
          "type": "uint256"
        }
      ],
      "name": "fundPool",
      "outputs": [],
      "stateMutability": "payable",
      "type": "function"
    },
    {
      "inputs": [
        {
          "internalType": "string",
          "name": "",
          "type": "string"
        }
      ],
      "name": "pools",
      "outputs": [
        {
          "internalType": "uint256",
          "name": "pool",
          "type": "uint256"
        },
        {
          "internalType": "address",
          "name": "validator",
          "type": "address"
        },
        {
          "internalType": "address",
          "name": "creator",
          "type": "address"
        }
      ],
      "stateMutability": "view",
      "type": "function"
    },
    {
      "inputs": [
        {
          "internalType": "string",
          "name": "poolName",
          "type": "string"
        },
        {
          "internalType": "address",
          "name": "newValidator",
          "type": "address"
        }
      ],
      "name": "transferValidator",
      "outputs": [],
      "stateMutability": "nonpayable",
      "type": "function"
    },
    {
      "inputs": [
        {
          "internalType": "string",
          "name": "poolName",
          "type": "string"
        },
        {
          "internalType": "uint256",
          "name": "amt",
          "type": "uint256"
        }
      ],
      "name": "withdrawFromPool",
      "outputs": [],
      "stateMutability": "nonpayable",
      "type": "function"
    }
  ],
  "bytecode": "0x60806040523480156200001157600080fd5b5060405162001767380380620017678339818101604052810190620000379190620000e8565b806000806101000a81548173ffffffffffffffffffffffffffffffffffffffff021916908373ffffffffffffffffffffffffffffffffffffffff160217905550506200011a565b600080fd5b600073ffffffffffffffffffffffffffffffffffffffff82169050919050565b6000620000b08262000083565b9050919050565b620000c281620000a3565b8114620000ce57600080fd5b50565b600081519050620000e281620000b7565b92915050565b6000602082840312156200010157620001006200007e565b5b60006200011184828501620000d1565b91505092915050565b61163d806200012a6000396000f3fe6080604052600436106100555760003560e01c8063149cd7971461005a5780632b698116146100835780632fe319da146100ac5780639d6f17a8146100d7578063b1f552ed14610116578063c842ed911461013f575b600080fd5b34801561006657600080fd5b50610081600480360381019061007c9190610c26565b61015b565b005b34801561008f57600080fd5b506100aa60048036038101906100a59190610ce4565b6103c3565b005b3480156100b857600080fd5b506100c161060a565b6040516100ce9190610da3565b60405180910390f35b3480156100e357600080fd5b506100fe60048036038101906100f99190610eff565b61062e565b60405161010d93929190610f66565b60405180910390f35b34801561012257600080fd5b5061013d60048036038101906101389190610f9d565b6106ae565b005b61015960048036038101906101549190610c26565b6108ed565b005b82823373ffffffffffffffffffffffffffffffffffffffff1660018383604051610186929190611062565b908152602001604051809103902060010160009054906101000a900473ffffffffffffffffffffffffffffffffffffffff1673ffffffffffffffffffffffffffffffffffffffff161461020e576040517f08c379a0000000000000000000000000000000000000000000000000000000008152600401610205906110fe565b60405180910390fd5b600060018686604051610222929190611062565b908152602001604051809103902090508381600001541015610279576040517f08c379a000000000000000000000000000000000000000000000000000000000815260040161027090611190565b60405180910390fd5b836001878760405161028c929190611062565b908152602001604051809103902060000160008282546102ac91906111df565b9250508190555060008060009054906101000a900473ffffffffffffffffffffffffffffffffffffffff1673ffffffffffffffffffffffffffffffffffffffff1663a9059cbb8360010160009054906101000a900473ffffffffffffffffffffffffffffffffffffffff16876040518363ffffffff1660e01b8152600401610335929190611213565b6020604051808303816000875af1158015610354573d6000803e3d6000fd5b505050506040513d601f19601f820116820180604052508101906103789190611274565b9050806103ba576040517f08c379a00000000000000000000000000000000000000000000000000000000081526004016103b190611313565b60405180910390fd5b50505050505050565b82823373ffffffffffffffffffffffffffffffffffffffff16600183836040516103ee929190611062565b908152602001604051809103902060010160009054906101000a900473ffffffffffffffffffffffffffffffffffffffff1673ffffffffffffffffffffffffffffffffffffffff1614610476576040517f08c379a000000000000000000000000000000000000000000000000000000000815260040161046d906110fe565b60405180910390fd5b600073ffffffffffffffffffffffffffffffffffffffff168373ffffffffffffffffffffffffffffffffffffffff1614156104e6576040517f08c379a00000000000000000000000000000000000000000000000000000000081526004016104dd906113a5565b60405180910390fd5b6000600186866040516104fa929190611062565b908152602001604051809103902060010160009054906101000a900473ffffffffffffffffffffffffffffffffffffffff1690508360018787604051610541929190611062565b908152602001604051809103902060010160006101000a81548173ffffffffffffffffffffffffffffffffffffffff021916908373ffffffffffffffffffffffffffffffffffffffff1602179055508073ffffffffffffffffffffffffffffffffffffffff168473ffffffffffffffffffffffffffffffffffffffff1687876040516105ce929190611062565b60405180910390207f600f3b3880ab80e12ea42de6f0278201097f75d07f1c65cbab97f4d5ae56a37c60405160405180910390a4505050505050565b60008054906101000a900473ffffffffffffffffffffffffffffffffffffffff1681565b6001818051602081018201805184825260208301602085012081835280955050505050506000915090508060000154908060010160009054906101000a900473ffffffffffffffffffffffffffffffffffffffff16908060020160009054906101000a900473ffffffffffffffffffffffffffffffffffffffff16905083565b600073ffffffffffffffffffffffffffffffffffffffff16600186866040516106d8929190611062565b908152602001604051809103902060020160009054906101000a900473ffffffffffffffffffffffffffffffffffffffff1673ffffffffffffffffffffffffffffffffffffffff1614610760576040517f08c379a000000000000000000000000000000000000000000000000000000000815260040161075790611437565b60405180910390fd5b6040518060600160405280600081526020018473ffffffffffffffffffffffffffffffffffffffff1681526020013373ffffffffffffffffffffffffffffffffffffffff16815250600186866040516107ba929190611062565b90815260200160405180910390206000820151816000015560208201518160010160006101000a81548173ffffffffffffffffffffffffffffffffffffffff021916908373ffffffffffffffffffffffffffffffffffffffff16021790555060408201518160020160006101000a81548173ffffffffffffffffffffffffffffffffffffffff021916908373ffffffffffffffffffffffffffffffffffffffff1602179055509050503373ffffffffffffffffffffffffffffffffffffffff168373ffffffffffffffffffffffffffffffffffffffff1686866040516108a1929190611062565b60405180910390207f9482b0bd40155653096d6eab3a1be132481326ca8af07c910cc449e239d28a9185858a8a6040516108de9493929190611484565b60405180910390a45050505050565b600060018484604051610901929190611062565b90815260200160405180910390209050600073ffffffffffffffffffffffffffffffffffffffff168160010160009054906101000a900473ffffffffffffffffffffffffffffffffffffffff1673ffffffffffffffffffffffffffffffffffffffff1614156109a5576040517f08c379a000000000000000000000000000000000000000000000000000000000815260040161099c90611531565b60405180910390fd5b60008060009054906101000a900473ffffffffffffffffffffffffffffffffffffffff1673ffffffffffffffffffffffffffffffffffffffff166323b872dd3330866040518463ffffffff1660e01b8152600401610a0593929190611551565b6020604051808303816000875af1158015610a24573d6000803e3d6000fd5b505050506040513d601f19601f82011682018060405250810190610a489190611274565b905080610a8a576040517f08c379a0000000000000000000000000000000000000000000000000000000008152600401610a8190611313565b60405180910390fd5b82826000016000828254610a9e9190611588565b925050819055508160020160009054906101000a900473ffffffffffffffffffffffffffffffffffffffff1673ffffffffffffffffffffffffffffffffffffffff168260010160009054906101000a900473ffffffffffffffffffffffffffffffffffffffff1673ffffffffffffffffffffffffffffffffffffffff168686604051610b2b929190611062565b60405180910390207fb875a454b5c29a677c1407bd973cf658691729d40ff1c8fc02f467d413e7b910868660000154604051610b689291906115de565b60405180910390a45050505050565b6000604051905090565b600080fd5b600080fd5b600080fd5b600080fd5b600080fd5b60008083601f840112610bb057610baf610b8b565b5b8235905067ffffffffffffffff811115610bcd57610bcc610b90565b5b602083019150836001820283011115610be957610be8610b95565b5b9250929050565b6000819050919050565b610c0381610bf0565b8114610c0e57600080fd5b50565b600081359050610c2081610bfa565b92915050565b600080600060408486031215610c3f57610c3e610b81565b5b600084013567ffffffffffffffff811115610c5d57610c5c610b86565b5b610c6986828701610b9a565b93509350506020610c7c86828701610c11565b9150509250925092565b600073ffffffffffffffffffffffffffffffffffffffff82169050919050565b6000610cb182610c86565b9050919050565b610cc181610ca6565b8114610ccc57600080fd5b50565b600081359050610cde81610cb8565b92915050565b600080600060408486031215610cfd57610cfc610b81565b5b600084013567ffffffffffffffff811115610d1b57610d1a610b86565b5b610d2786828701610b9a565b93509350506020610d3a86828701610ccf565b9150509250925092565b6000819050919050565b6000610d69610d64610d5f84610c86565b610d44565b610c86565b9050919050565b6000610d7b82610d4e565b9050919050565b6000610d8d82610d70565b9050919050565b610d9d81610d82565b82525050565b6000602082019050610db86000830184610d94565b92915050565b600080fd5b6000601f19601f8301169050919050565b7f4e487b7100000000000000000000000000000000000000000000000000000000600052604160045260246000fd5b610e0c82610dc3565b810181811067ffffffffffffffff82111715610e2b57610e2a610dd4565b5b80604052505050565b6000610e3e610b77565b9050610e4a8282610e03565b919050565b600067ffffffffffffffff821115610e6a57610e69610dd4565b5b610e7382610dc3565b9050602081019050919050565b82818337600083830152505050565b6000610ea2610e9d84610e4f565b610e34565b905082815260208101848484011115610ebe57610ebd610dbe565b5b610ec9848285610e80565b509392505050565b600082601f830112610ee657610ee5610b8b565b5b8135610ef6848260208601610e8f565b91505092915050565b600060208284031215610f1557610f14610b81565b5b600082013567ffffffffffffffff811115610f3357610f32610b86565b5b610f3f84828501610ed1565b91505092915050565b610f5181610bf0565b82525050565b610f6081610ca6565b82525050565b6000606082019050610f7b6000830186610f48565b610f886020830185610f57565b610f956040830184610f57565b949350505050565b600080600080600060608688031215610fb957610fb8610b81565b5b600086013567ffffffffffffffff811115610fd757610fd6610b86565b5b610fe388828901610b9a565b95509550506020610ff688828901610ccf565b935050604086013567ffffffffffffffff81111561101757611016610b86565b5b61102388828901610b9a565b92509250509295509295909350565b600081905092915050565b60006110498385611032565b9350611056838584610e80565b82840190509392505050565b600061106f82848661103d565b91508190509392505050565b600082825260208201905092915050565b7f506f6f6c5061796d656e743a20796f7520617265206e6f74207468652076616c60008201527f696461746f7220666f72207468697320706f6f6c2e0000000000000000000000602082015250565b60006110e860358361107b565b91506110f38261108c565b604082019050919050565b60006020820190508181036000830152611117816110db565b9050919050565b7f506f6f6c5061796d656e743a206e6f7420656e6f7567682076616c756520696e60008201527f20706f6f6c2e0000000000000000000000000000000000000000000000000000602082015250565b600061117a60268361107b565b91506111858261111e565b604082019050919050565b600060208201905081810360008301526111a98161116d565b9050919050565b7f4e487b7100000000000000000000000000000000000000000000000000000000600052601160045260246000fd5b60006111ea82610bf0565b91506111f583610bf0565b925082821015611208576112076111b0565b5b828203905092915050565b60006040820190506112286000830185610f57565b6112356020830184610f48565b9392505050565b60008115159050919050565b6112518161123c565b811461125c57600080fd5b50565b60008151905061126e81611248565b92915050565b60006020828403121561128a57611289610b81565b5b60006112988482850161125f565b91505092915050565b7f506f6f6c5061796d656e743a20746f6b656e20646964206e6f7420737563636560008201527f737366756c6c79207472616e736665722e000000000000000000000000000000602082015250565b60006112fd60318361107b565b9150611308826112a1565b604082019050919050565b6000602082019050818103600083015261132c816112f0565b9050919050565b7f506f6f6c5061796d656e743a20646f206e6f74207472616e736665722076616c60008201527f696461746f7220746f20746865207a65726f20616464726573732e0000000000602082015250565b600061138f603b8361107b565b915061139a82611333565b604082019050919050565b600060208201905081810360008301526113be81611382565b9050919050565b7f4d6f61745061796d656e743a206d6f617420616c72656164792065786973747360008201527f2e00000000000000000000000000000000000000000000000000000000000000602082015250565b600061142160218361107b565b915061142c826113c5565b604082019050919050565b6000602082019050818103600083015261145081611414565b9050919050565b6000611463838561107b565b9350611470838584610e80565b61147983610dc3565b840190509392505050565b6000604082019050818103600083015261149f818688611457565b905081810360208301526114b4818486611457565b905095945050505050565b7f506f6f6c5061796d656e743a20706f6f6c20646f6573206e6f7420657869737460008201527f2e00000000000000000000000000000000000000000000000000000000000000602082015250565b600061151b60218361107b565b9150611526826114bf565b604082019050919050565b6000602082019050818103600083015261154a8161150e565b9050919050565b60006060820190506115666000830186610f57565b6115736020830185610f57565b6115806040830184610f48565b949350505050565b600061159382610bf0565b915061159e83610bf0565b9250827fffffffffffffffffffffffffffffffffffffffffffffffffffffffffffffffff038211156115d3576115d26111b0565b5b828201905092915050565b60006040820190506115f36000830185610f48565b6116006020830184610f48565b939250505056fea264697066735822122078f1844e116cc7123449551b300594858f380097853bea6e92c03a64e2164b4964736f6c634300080c0033",
  "linkReferences": {},
  "deployedLinkReferences": {}
}