{
    "_format": "hh-sol-artifact-1",
    "contractName": "MoatPayment",
    "sourceName": "contracts/MoatPayment.sol",
    "abi": [
        {
            "inputs": [
                {
                    "internalType": "address",
                    "name": "_escrowToken",
                    "type": "address"
                }
            ],
            "stateMutability": "nonpayable",
            "type": "constructor"
        },
        {
            "anonymous": false,
            "inputs": [
                {
                    "indexed": true,
                    "internalType": "string",
                    "name": "moatName",
                    "type": "string"
                },
                {
                    "indexed": true,
                    "internalType": "address",
                    "name": "validator",
                    "type": "address"
                },
                {
                    "indexed": true,
                    "internalType": "address",
                    "name": "creator",
                    "type": "address"
                }
            ],
            "name": "MoatCreated",
            "type": "event"
        },
        {
            "anonymous": false,
            "inputs": [
                {
                    "indexed": true,
                    "internalType": "string",
                    "name": "moatName",
                    "type": "string"
                },
                {
                    "indexed": true,
                    "internalType": "address",
                    "name": "validator",
                    "type": "address"
                },
                {
                    "indexed": true,
                    "internalType": "address",
                    "name": "creator",
                    "type": "address"
                },
                {
                    "indexed": false,
                    "internalType": "uint256",
                    "name": "fundsAdded",
                    "type": "uint256"
                },
                {
                    "indexed": false,
                    "internalType": "uint256",
                    "name": "totalFunds",
                    "type": "uint256"
                }
            ],
            "name": "MoatFunded",
            "type": "event"
        },
        {
            "anonymous": false,
            "inputs": [
                {
                    "indexed": true,
                    "internalType": "string",
                    "name": "moatName",
                    "type": "string"
                },
                {
                    "indexed": true,
                    "internalType": "address",
                    "name": "newValidator",
                    "type": "address"
                },
                {
                    "indexed": true,
                    "internalType": "address",
                    "name": "oldValidator",
                    "type": "address"
                }
            ],
            "name": "ValidatorTransferred",
            "type": "event"
        },
        {
            "inputs": [
                {
                    "internalType": "string",
                    "name": "moatName",
                    "type": "string"
                },
                {
                    "internalType": "address",
                    "name": "validator",
                    "type": "address"
                }
            ],
            "name": "createMoat",
            "outputs": [],
            "stateMutability": "nonpayable",
            "type": "function"
        },
        {
            "inputs": [],
            "name": "escrowToken",
            "outputs": [
                {
                    "internalType": "contract IERC20",
                    "name": "",
                    "type": "address"
                }
            ],
            "stateMutability": "view",
            "type": "function"
        },
        {
            "inputs": [
                {
                    "internalType": "string",
                    "name": "moatName",
                    "type": "string"
                },
                {
                    "internalType": "uint256",
                    "name": "amt",
                    "type": "uint256"
                }
            ],
            "name": "fundMoat",
            "outputs": [],
            "stateMutability": "payable",
            "type": "function"
        },
        {
            "inputs": [
                {
                    "internalType": "string",
                    "name": "",
                    "type": "string"
                }
            ],
            "name": "moats",
            "outputs": [
                {
                    "internalType": "uint256",
                    "name": "pool",
                    "type": "uint256"
                },
                {
                    "internalType": "address",
                    "name": "validator",
                    "type": "address"
                },
                {
                    "internalType": "address",
                    "name": "creator",
                    "type": "address"
                }
            ],
            "stateMutability": "view",
            "type": "function"
        },
        {
            "inputs": [
                {
                    "internalType": "string",
                    "name": "moatName",
                    "type": "string"
                },
                {
                    "internalType": "address",
                    "name": "newValidator",
                    "type": "address"
                }
            ],
            "name": "transferValidator",
            "outputs": [],
            "stateMutability": "nonpayable",
            "type": "function"
        },
        {
            "inputs": [
                {
                    "internalType": "string",
                    "name": "moatName",
                    "type": "string"
                },
                {
                    "internalType": "uint256",
                    "name": "amt",
                    "type": "uint256"
                }
            ],
            "name": "withdrawFromPool",
            "outputs": [],
            "stateMutability": "nonpayable",
            "type": "function"
        }
    ],
    "bytecode": "0x60806040523480156200001157600080fd5b5060405162001657380380620016578339818101604052810190620000379190620000e8565b806000806101000a81548173ffffffffffffffffffffffffffffffffffffffff021916908373ffffffffffffffffffffffffffffffffffffffff160217905550506200011a565b600080fd5b600073ffffffffffffffffffffffffffffffffffffffff82169050919050565b6000620000b08262000083565b9050919050565b620000c281620000a3565b8114620000ce57600080fd5b50565b600081519050620000e281620000b7565b92915050565b6000602082840312156200010157620001006200007e565b5b60006200011184828501620000d1565b91505092915050565b61152d806200012a6000396000f3fe6080604052600436106100555760003560e01c8063149cd7971461005a5780632b698116146100835780632fe319da146100ac578063b472b22a146100d7578063cf04884214610100578063dea7107b1461011c575b600080fd5b34801561006657600080fd5b50610081600480360381019061007c9190610c13565b61015b565b005b34801561008f57600080fd5b506100aa60048036038101906100a59190610cd1565b6103c3565b005b3480156100b857600080fd5b506100c161060a565b6040516100ce9190610d90565b60405180910390f35b3480156100e357600080fd5b506100fe60048036038101906100f99190610cd1565b61062e565b005b61011a60048036038101906101159190610c13565b61085a565b005b34801561012857600080fd5b50610143600480360381019061013e9190610eec565b610ae4565b60405161015293929190610f53565b60405180910390f35b82823373ffffffffffffffffffffffffffffffffffffffff1660018383604051610186929190610fba565b908152602001604051809103902060010160009054906101000a900473ffffffffffffffffffffffffffffffffffffffff1673ffffffffffffffffffffffffffffffffffffffff161461020e576040517f08c379a000000000000000000000000000000000000000000000000000000000815260040161020590611056565b60405180910390fd5b600060018686604051610222929190610fba565b908152602001604051809103902090508381600001541015610279576040517f08c379a0000000000000000000000000000000000000000000000000000000008152600401610270906110e8565b60405180910390fd5b836001878760405161028c929190610fba565b908152602001604051809103902060000160008282546102ac9190611137565b9250508190555060008060009054906101000a900473ffffffffffffffffffffffffffffffffffffffff1673ffffffffffffffffffffffffffffffffffffffff1663a9059cbb8360010160009054906101000a900473ffffffffffffffffffffffffffffffffffffffff16876040518363ffffffff1660e01b815260040161033592919061116b565b6020604051808303816000875af1158015610354573d6000803e3d6000fd5b505050506040513d601f19601f8201168201806040525081019061037891906111cc565b9050806103ba576040517f08c379a00000000000000000000000000000000000000000000000000000000081526004016103b19061126b565b60405180910390fd5b50505050505050565b82823373ffffffffffffffffffffffffffffffffffffffff16600183836040516103ee929190610fba565b908152602001604051809103902060010160009054906101000a900473ffffffffffffffffffffffffffffffffffffffff1673ffffffffffffffffffffffffffffffffffffffff1614610476576040517f08c379a000000000000000000000000000000000000000000000000000000000815260040161046d90611056565b60405180910390fd5b600073ffffffffffffffffffffffffffffffffffffffff168373ffffffffffffffffffffffffffffffffffffffff1614156104e6576040517f08c379a00000000000000000000000000000000000000000000000000000000081526004016104dd906112fd565b60405180910390fd5b6000600186866040516104fa929190610fba565b908152602001604051809103902060010160009054906101000a900473ffffffffffffffffffffffffffffffffffffffff1690508360018787604051610541929190610fba565b908152602001604051809103902060010160006101000a81548173ffffffffffffffffffffffffffffffffffffffff021916908373ffffffffffffffffffffffffffffffffffffffff1602179055508073ffffffffffffffffffffffffffffffffffffffff168473ffffffffffffffffffffffffffffffffffffffff1687876040516105ce929190610fba565b60405180910390207f600f3b3880ab80e12ea42de6f0278201097f75d07f1c65cbab97f4d5ae56a37c60405160405180910390a4505050505050565b60008054906101000a900473ffffffffffffffffffffffffffffffffffffffff1681565b600073ffffffffffffffffffffffffffffffffffffffff1660018484604051610658929190610fba565b908152602001604051809103902060020160009054906101000a900473ffffffffffffffffffffffffffffffffffffffff1673ffffffffffffffffffffffffffffffffffffffff16146106e0576040517f08c379a00000000000000000000000000000000000000000000000000000000081526004016106d79061138f565b60405180910390fd5b6040518060600160405280600081526020018273ffffffffffffffffffffffffffffffffffffffff1681526020013373ffffffffffffffffffffffffffffffffffffffff168152506001848460405161073a929190610fba565b90815260200160405180910390206000820151816000015560208201518160010160006101000a81548173ffffffffffffffffffffffffffffffffffffffff021916908373ffffffffffffffffffffffffffffffffffffffff16021790555060408201518160020160006101000a81548173ffffffffffffffffffffffffffffffffffffffff021916908373ffffffffffffffffffffffffffffffffffffffff1602179055509050503373ffffffffffffffffffffffffffffffffffffffff168173ffffffffffffffffffffffffffffffffffffffff168484604051610821929190610fba565b60405180910390207f51cb40c4a8bb01bd5bfbfbdce18a98aaf6d1f5f0425f2d31209927536a78a61060405160405180910390a4505050565b60006001848460405161086e929190610fba565b90815260200160405180910390209050600073ffffffffffffffffffffffffffffffffffffffff168160010160009054906101000a900473ffffffffffffffffffffffffffffffffffffffff1673ffffffffffffffffffffffffffffffffffffffff161415610912576040517f08c379a000000000000000000000000000000000000000000000000000000000815260040161090990611421565b60405180910390fd5b60008060009054906101000a900473ffffffffffffffffffffffffffffffffffffffff1673ffffffffffffffffffffffffffffffffffffffff166323b872dd3330866040518463ffffffff1660e01b815260040161097293929190611441565b6020604051808303816000875af1158015610991573d6000803e3d6000fd5b505050506040513d601f19601f820116820180604052508101906109b591906111cc565b9050806109f7576040517f08c379a00000000000000000000000000000000000000000000000000000000081526004016109ee9061126b565b60405180910390fd5b82826000016000828254610a0b9190611478565b925050819055508160020160009054906101000a900473ffffffffffffffffffffffffffffffffffffffff1673ffffffffffffffffffffffffffffffffffffffff168260010160009054906101000a900473ffffffffffffffffffffffffffffffffffffffff1673ffffffffffffffffffffffffffffffffffffffff168686604051610a98929190610fba565b60405180910390207f58d0ddf41ea6b9f7ddc6a3911d269086f74b5d78e90443a9c2849e76f4b40512868660000154604051610ad59291906114ce565b60405180910390a45050505050565b6001818051602081018201805184825260208301602085012081835280955050505050506000915090508060000154908060010160009054906101000a900473ffffffffffffffffffffffffffffffffffffffff16908060020160009054906101000a900473ffffffffffffffffffffffffffffffffffffffff16905083565b6000604051905090565b600080fd5b600080fd5b600080fd5b600080fd5b600080fd5b60008083601f840112610b9d57610b9c610b78565b5b8235905067ffffffffffffffff811115610bba57610bb9610b7d565b5b602083019150836001820283011115610bd657610bd5610b82565b5b9250929050565b6000819050919050565b610bf081610bdd565b8114610bfb57600080fd5b50565b600081359050610c0d81610be7565b92915050565b600080600060408486031215610c2c57610c2b610b6e565b5b600084013567ffffffffffffffff811115610c4a57610c49610b73565b5b610c5686828701610b87565b93509350506020610c6986828701610bfe565b9150509250925092565b600073ffffffffffffffffffffffffffffffffffffffff82169050919050565b6000610c9e82610c73565b9050919050565b610cae81610c93565b8114610cb957600080fd5b50565b600081359050610ccb81610ca5565b92915050565b600080600060408486031215610cea57610ce9610b6e565b5b600084013567ffffffffffffffff811115610d0857610d07610b73565b5b610d1486828701610b87565b93509350506020610d2786828701610cbc565b9150509250925092565b6000819050919050565b6000610d56610d51610d4c84610c73565b610d31565b610c73565b9050919050565b6000610d6882610d3b565b9050919050565b6000610d7a82610d5d565b9050919050565b610d8a81610d6f565b82525050565b6000602082019050610da56000830184610d81565b92915050565b600080fd5b6000601f19601f8301169050919050565b7f4e487b7100000000000000000000000000000000000000000000000000000000600052604160045260246000fd5b610df982610db0565b810181811067ffffffffffffffff82111715610e1857610e17610dc1565b5b80604052505050565b6000610e2b610b64565b9050610e378282610df0565b919050565b600067ffffffffffffffff821115610e5757610e56610dc1565b5b610e6082610db0565b9050602081019050919050565b82818337600083830152505050565b6000610e8f610e8a84610e3c565b610e21565b905082815260208101848484011115610eab57610eaa610dab565b5b610eb6848285610e6d565b509392505050565b600082601f830112610ed357610ed2610b78565b5b8135610ee3848260208601610e7c565b91505092915050565b600060208284031215610f0257610f01610b6e565b5b600082013567ffffffffffffffff811115610f2057610f1f610b73565b5b610f2c84828501610ebe565b91505092915050565b610f3e81610bdd565b82525050565b610f4d81610c93565b82525050565b6000606082019050610f686000830186610f35565b610f756020830185610f44565b610f826040830184610f44565b949350505050565b600081905092915050565b6000610fa18385610f8a565b9350610fae838584610e6d565b82840190509392505050565b6000610fc7828486610f95565b91508190509392505050565b600082825260208201905092915050565b7f4d6f61745061796d656e743a20796f7520617265206e6f74207468652076616c60008201527f696461746f7220666f722074686973206d6f61742e0000000000000000000000602082015250565b6000611040603583610fd3565b915061104b82610fe4565b604082019050919050565b6000602082019050818103600083015261106f81611033565b9050919050565b7f4d6f61745061796d656e743a206e6f7420656e6f7567682076616c756520696e60008201527f206d6f6174277320706f6f6c2e00000000000000000000000000000000000000602082015250565b60006110d2602d83610fd3565b91506110dd82611076565b604082019050919050565b60006020820190508181036000830152611101816110c5565b9050919050565b7f4e487b7100000000000000000000000000000000000000000000000000000000600052601160045260246000fd5b600061114282610bdd565b915061114d83610bdd565b9250828210156111605761115f611108565b5b828203905092915050565b60006040820190506111806000830185610f44565b61118d6020830184610f35565b9392505050565b60008115159050919050565b6111a981611194565b81146111b457600080fd5b50565b6000815190506111c6816111a0565b92915050565b6000602082840312156111e2576111e1610b6e565b5b60006111f0848285016111b7565b91505092915050565b7f4d6f61745061796d656e743a20746f6b656e20646964206e6f7420737563636560008201527f737366756c6c79207472616e736665722e000000000000000000000000000000602082015250565b6000611255603183610fd3565b9150611260826111f9565b604082019050919050565b6000602082019050818103600083015261128481611248565b9050919050565b7f4d6f61745061796d656e743a20646f206e6f74207472616e736665722076616c60008201527f696461746f7220746f20746865207a65726f20616464726573732e0000000000602082015250565b60006112e7603b83610fd3565b91506112f28261128b565b604082019050919050565b60006020820190508181036000830152611316816112da565b9050919050565b7f4d6f61745061796d656e743a206d6f617420616c72656164792065786973747360008201527f2e00000000000000000000000000000000000000000000000000000000000000602082015250565b6000611379602183610fd3565b91506113848261131d565b604082019050919050565b600060208201905081810360008301526113a88161136c565b9050919050565b7f4d6f61745061796d656e743a206d6f617420646f6573206e6f7420657869737460008201527f2e00000000000000000000000000000000000000000000000000000000000000602082015250565b600061140b602183610fd3565b9150611416826113af565b604082019050919050565b6000602082019050818103600083015261143a816113fe565b9050919050565b60006060820190506114566000830186610f44565b6114636020830185610f44565b6114706040830184610f35565b949350505050565b600061148382610bdd565b915061148e83610bdd565b9250827fffffffffffffffffffffffffffffffffffffffffffffffffffffffffffffffff038211156114c3576114c2611108565b5b828201905092915050565b60006040820190506114e36000830185610f35565b6114f06020830184610f35565b939250505056fea2646970667358221220c14f976441997f5b2d82b373a4e7339856883b2d0ee806130fb2f4e54d0be78864736f6c634300080c0033",
    "linkReferences": {},
    "deployedLinkReferences": {}
}